{
	"txhash=0x1e2910a262b1008d0616a0beb24c1a491d78771baa54a33e66065e03b1f46bc1": {
		"jsonrpc": "2.0",
		"result": {
			"accessList": [],
			"blockHash": "0xdce94191f861842c2786e3594da0c0109707fd78409cab5f38e10eb87d0f301c",
			"blockNumber": "0xa36e44",
			"chainId": "0x3",
			"condition": null,
			"creates": null,
			"from": "0xb910ae1db14a9fbc64ce175bdca6d3a743f690ab",
			"gas": "0x186a0",
			"gasPrice": "0x3b9aca09",
			"hash": "0xf96ff62ba5aaf46cd824b6766f7fa6f6b9595b1dd4ef1d31bcf1f765047c2835",
			"input": "0xd0e30db0",
			"maxFeePerGas": "0x3b9aca12",
			"maxPriorityFeePerGas": "0x3b9aca00",
			"nonce": "0xc6",
			"publicKey": "0x6dbf7068e19de8457c426a758a92ea54827ebd5b8467c3a1a5c4ac19bc7570457738fe496a40ea4e1f59d39d89636a430afdec0bf2a8060c6bf7d612bfe90ad3",
			"r": "0xdecdc48821a06bf116e82b355d520dc5a44d6df98234e5344c16565b0b3dfdba",
			"raw": "0x02f8750381c6843b9aca00843b9aca12830186a094c778417e063141139fce010982780140aa0cd5ab8502540be40084d0e30db0c001a0decdc48821a06bf116e82b355d520dc5a44d6df98234e5344c16565b0b3dfdbaa06b85bb6fd8153e86b50f0011787585e8c709a2a25e7ee3c2579572f07acfd42e",
			"s": "0x6b85bb6fd8153e86b50f0011787585e8c709a2a25e7ee3c2579572f07acfd42e",
			"to": "0xc778417e063141139fce010982780140aa0cd5ab",
			"transactionIndex": "0xd",
			"type": "0x2",
			"v": "0x1",
			"value": "0x2540be400"
		},
		"id": 1
	}
}